:020000041000EA
:10100000500500201D100010000000009D10001071
:101010000018040000010000000000801149124A7D
:10102000124B00F018F8124880471249124A134B2D
:1010300000F011F81249134A134B00F00CF8134951
:10104000134A0020521A02DD043A8850FCDC114891
:101050008047114880479B1A03DD043BC858D05095
:10106000FBDC7047E8D100100C000020500100208C
:101070001D4B00102CD300105005002050070020FD
:101080002CD50010500700205007002050070020EA
:101090005C0B0020458B00106D650010FEE7000022
:1010A00080B582B000AF78600A1CFB1C1A707B68A8
:1010B0005A6AFB1C1B78DA40131C01221340181CCF
:1010C000BD4602B080BDC04680B584B000AFF860B8
:1010D000B9607A603B600020002101F0B3FE03207C
:1010E000002101F0AFFE0120002101F0ABFE022043
:1010F000002101F0A7FEBB6900229A70BB690022A3
:10110000DA70BB6901221A70BB6900225A70386814
:10111000214905F04DFD031E03D17B68DB78002BD0
:1011200036D0BB681B7901225340DBB2002B10D0B4
:101130001A4B1B7801225340DBB2002B09D0174B0E
:1011400001221A70BB6801221A70BB6805225A80FE
:101150001EE0BB681B79002B1AD0104B1B78002BAC
:1011600016D00E4B00221A70BB6800221A71BB68A1
:1011700000225A800220012101F064FE0320012197
:1011800001F060FEBB690122DA70FB6801221A706F
:10119000BD4604B080BDC046000016435007002085
:1011A00080B584B000AFF860B9607A603B60514BA5
:1011B000181C0221FFF774FF031E42D14E4B1B780F
:1011C00001225340DBB2002B3BD0BB691B78042BC0
:1011D00037D1BB681B7901225340DBB2002B17D0FB
:1011E000BB681B7801225340DBB2002B10D0434B6D
:1011F0001B7801225340DBB2002B09D03F4B012268
:101200001A70BB6801221A70BB6802225A8017E06C
:10121000BB681B79002B13D0BB681B78012253409D
:10122000DBB2002B0CD07B6801221A70334B0022FA
:101230001A70BB6800221A71BB6800225A8017E03E
:1012400016E02C4B181C0221FFF72AFF031E0FD0BB
:10125000294B1B7801225340DBB2002B08D0274BCF
:1012600000221A70BB6800221A70BB6800225A80E4
:101270007B681B78002B3AD01F4B1B780122534010
:10128000DBB2002B0ED03B6800229A703B68012233
:10129000DA703B6801221A703B6800225A70164BC4
:1012A00001221A70BB695B78002B20D0012001213C
:1012B00001F0C8FD0320002101F0C4FD3B680122BC
:1012C0009A703B680022DA703B6802221A703B6811
:1012D00001225A70FB6802221A700020012101F0DD
:1012E000B1FD054B00221A707B6800221A70BD46C2
:1012F00004B080BD000204405107002052070020C6
:1013000080B584B000AFF860B9607A603B60BB68BC
:101310001B78042B02D1FB6804221A703A4B181C6C
:101320000221FFF7BDFE031E42D1384B1B7801227C
:101330005340DBB2002B3BD07B681B79012253402A
:10134000DBB2002B17D07B681B7801225340DBB245
:10135000002B10D02E4B1B7801225340DBB2002B08
:1013600009D02B4B01221A707B6801221A707B680E
:1013700003225A801BE07B681B79002B17D07B6807
:101380001B7801225340DBB2002B10D0204B1B787E
:10139000002B0CD01D4B01221A701D4B00221A701D
:1013A0007B6800221A717B6800225A8017E016E0E1
:1013B000154B181C0221FFF773FE031E0FD0134BB1
:1013C0001B7801225340DBB2002B08D0104B0022C7
:1013D0001A707B6800221A707B6800225A800B4BBF
:1013E0001B78002B0CD0084B181C0221FFF758FE6D
:1013F000031E05D0054B00221A70FB6803221A70E9
:10140000BD4604B080BDC046000204405307002022
:101410005407002080B584B000AFF860B9607A60EE
:101420003B60BB681B78062B0CD1154B1B78012247
:101430005340DBB2002B05D03B6800225A70104BA2
:1014400001221A70BB681B78042B16D103200021DF
:1014500001F0F8FC0120002101F0F4FC3B680022BF
:101460009A703B680022DA703B6801221A70FB68B0
:1014700001221A70024B00221A70BD4604B080BDD2
:101480005507002080B584B000AFF860B9607A607D
:101490003B603B685B7801225340DBB2002B02D0FB
:1014A000FB6901225A70BB681B78062B02D1FB68CE
:1014B00002221A70BD4604B080BDC04680B582B01D
:1014C00000AF786039603B681B7901225340DBB282
:1014D000002B06D03B6801221A703B6801225A801B
:1014E0000CE00020002101F0ADFC3B6800221A71E5
:1014F0003B6800225A807B6800221A70BD4602B009
:1015000080BDC04680B582B000AF78601F4B181C0C
:101510000221FFF7C5FD031E012B03D17B680122C9
:10152000DA7002E07B680022DA70184B181C032185
:10153000FFF7B6FD031E012B03D17B6801229A70D1
:1015400002E07B6800229A70104B181C0421FFF700
:10155000A7FD031E012B03D17B6801225A7102E013
:101560007B6800225A71094B181C0521FFF798FD72
:10157000031E012B03D17B6801221A7102E07B68F4
:1015800000221A71BD4602B080BDC046000404406E
:1015900080B584B000AFF860B9607A603B60BB682A
:1015A0001B791A1C7B68DB7813433A68D2781343A3
:1015B000BA69D2781343FA69D27813435A1E934119
:1015C000DAB2FB685A70BD4604B080BD80B582B007
:1015D00000AF021CFB1D1A70FB1D1B787F2B0AD865
:1015E0000649FB1D1B781A1C1F23134001229A4039
:1015F000C0235B00CA50BD4602B080BD00E100E0E0
:1016000080B582B000AF78600A1CFB1C1A70FB1C0E
:101610001B78802252029A407B685A60BD4602B015
:1016200080BDC04680B582B000AF78600A1CFB1C4C
:101630001A70FB1C1B78034A9A407B685A60BD46AF
:1016400002B080BD0100010080B582B000AF7860BB
:1016500039607B683A68DA64BD4602B080BDC04636
:1016600080B582B000AF78600A1CFB1C1A70FB1CAE
:101670001B7801229A407B68B0215A50BD4602B0C7
:1016800080BDC04680B582B000AF786039607B68AD
:101690003A68C0329200D3589BB2181CBD4602B0C3
:1016A00080BDC04680B582B000AF786039603B68CD
:1016B00001229A40111C7A68CA235B00D150BD46B2
:1016C00002B080BD80B582B000AF834A8023DB01C9
:1016D000101C191CFFF7B8FF7F4B181C04F0FEF913
:1016E000031C1A1CFB1D1A707C4B1B78052B00D9A0
:1016F000EDE09A007A4BD3181B689F46794B1B8804
:101700001B029AB2FB1D1B789BB213439BB29AB289
:10171000744B1A80734B1B88734A93420ED1734BE0
:10172000181C0B21FFF76CFF6C4B01221A706D4BDC
:1017300000221A806E4B00221A70C9E0C8E0FB1D1F
:101740001B78202B09D1FB1D1B78043BDAB2684BB8
:101750001A70624B02221A70BAE0604B00221A70B3
:10176000B6E0FB1D1B78022B06D15C4B03221A70DE
:10177000604B00221A70ABE0584B00221A70A7E0B1
:101780005C4B1B781A1C5A4B1B78013B9A420DD1BB
:10179000584B1B78191C584BFA1D12785A544F4B52
:1017A00004221A70534B00221A7091E0514B1B789F
:1017B000191C514BFA1D12785A544E4B1B780133A9
:1017C000DAB24C4B1A7083E04C4B00221A80434B28
:1017D00005221A707CE0494B1B881B029AB2FB1D44
:1017E0001B789BB213439BB29AB2444B1A80414B75
:1017F0001B78012B64D1414B1B88414A93425BD13A
:101800003D4B1B781B029AB23B4B5B789BB2134358
:101810009BB29AB23B4B5A803A4B5A883A4B5A8702
:10182000354B9B781B029AB2334BDB789BB2134348
:101830009BB29BB2354A944663449BB29AB2314BF9
:10184000DA80304BDB881BB2181C0A2105F05AF8ED
:10185000031C9BB21BB2181C05F060FD021C2A4B36
:10186000DA63254BDB7A283B9BB21A1C9200D31813
:10187000DB189AB2234B9A80224B9B88181C0A21B2
:1018800004F0B0FF031C9BB2D9B21F4B4022995405
:10189000194B1B799AB21B4B1A801A4B1B88181CC8
:1018A0000A2104F09FFF031C9BB2D9B2164B3922C8
:1018B0009954104B00221A70084B00221A7007E04E
:1018C0000C4B1B780133DAB20A4B1A7000E0C046A9
:1018D000BD4602B080BDC04600400048560700200B
:1018E000D8CD001058070020BBAA00000002044019
:1018F0005A0700205B0700205C0700207C070020BF
:101900000A0D0000D00A0020480A0020D08AFFFFFC
:1019100080B582B000AF9023DA058023DB01101C74
:10192000191CFFF791FE9023DB05181C04F0D6F874
:10193000031CDAB2FB1D1A703D4B1B78042B00D937
:1019400071E09A003B4BD3181B689F46FB1D1B7828
:10195000042B06D1384B00221A70354B01221A7025
:1019600062E061E0FB1D1A78344B1A70344B0022A0
:101970001A70344B00221A702D4B02221A7053E059
:10198000FB1D181C012102F0A5FC2D4B1B781A1C15
:101990002A4B1B78013B9A4216D1294B1B781A1C03
:1019A000FB1D1978284B9954244B1B781A1C264B85
:1019B000181C111C03F056F8031C1A1C214B1A703A
:1019C0001B4B03221A702FE01D4B1B781A1CFB1DAA
:1019D00019781D4B99541A4B1B780133DAB2184B06
:1019E0001A7021E0FB1D1A78164B1B789A4202D11F
:1019F000114B01221A700E4B04221A7014E0FB1DC9
:101A00001B780B2B0BD10C4B1B78002B07D00F4BEB
:101A1000181C0D21FFF706FE074B00221A70044B1D
:101A200000221A7000E0C046BD4602B080BDC0462C
:101A30007E070020F0CD00107F07002080070020E7
:101A40008107002082070020840700200002044054
:101A500090B583B000AFCB4B181C03F0E1FDC94B30
:101A60005B68DB00DB08C84A94466344082B01D955
:101A700000F07AFB9A00C54BD3181B689F46C44CF4
:101A80003A1CC04B101C191C01F052FC3B1C211CC1
:101A90001A1C0523081C111C1A1C07F079F8BD4BF1
:101AA00000221A70BA4B1B78002B03D1B94B0122CC
:101AB0001A700EE0B64B1B78042B03D1B54B0222F3
:101AC0001A7006E0B24B1B78062B02D1B14B0322F1
:101AD0001A70AF4B5B78002B07D0AE4B1B780422FB
:101AE0001343DAB2AB4B1A7003E0AA4B1A78A94B36
:101AF0001A70A74B9B78002B04D1A64B1A78A54BE4
:101B00001A7047E0A24B9B78062B07D1A14B1B789C
:101B100008221343DAB29F4B1A703BE09C4B9B7830
:101B2000012B07D19B4B1B7810221343DAB2994B40
:101B30001A702FE0964B9B78022B07D1954B1B78A0
:101B400018221343DAB2934B1A7023E0904B9B7820
:101B5000032B07D18F4B1B7820221343DAB28D4B16
:101B60001A7017E08A4B9B78042B07D1894B1B789E
:101B700028221343DAB2874B1A700BE0844B9B7810
:101B8000052B07D1834B1B7830221343DAB2814BEC
:101B90001A70EAE2E9E27B4B181C01F083FC031C9B
:101BA0001A1C7D4B111C19701104090E5970110279
:101BB000090E9970120EDA70764B00225A70764B2D
:101BC0001B78002B07D1734B5B7801221343DAB2E9
:101BD000704B5A7016E0704B1B78042B07D16D4B7D
:101BE0005B7802221343DAB26A4B5A700AE06A4BFE
:101BF0001B78082B06D1674B5B7803221343DAB2BC
:101C0000644B5A70644B5B78002B04D1614B5A785B
:101C1000604B5A7017E0604B5B78012B07D15D4B2E
:101C20005B7804221343DAB25A4B5A700BE05A4BDA
:101C30005B78022B07D1574B5B7808221343DAB24B
:101C4000544B5A7091E290E24E4B181C01F0B6FCD6
:101C5000031C1A1C514B111C19701104090E5970E8
:101C60001102090E9970120EDA704A4B00229A7016
:101C70004A4B1B78002B07D1464B9B78012213431C
:101C8000DAB2444B9A7016E0444B1B780E2B07D106
:101C9000404B9B7802221343DAB23E4B9A700AE023
:101CA0003E4B1B78042B06D13A4B9B7803221343FF
:101CB000DAB2384B9A70394B5B78002B04D1354B34
:101CC0009A78344B9A703BE0344B5B78012B07D108
:101CD000304B9B7804221343DAB22E4B9A702FE0DC
:101CE0002E4B5B78022B07D12A4B9B78082213439B
:101CF000DAB2284B9A7023E0284B5B78032B07D18C
:101D0000244B9B780C221343DAB2224B9A7017E0D3
:101D1000224B5B78042B07D11E4B9B781022134378
:101D2000DAB21C4B9A700BE01C4B5B78052B07D189
:101D3000184B9B7814221343DAB2164B9A7014E2B4
:101D400013E2104B181C01F0E3FC031C1A1C144B8B
:101D5000111C19701104090E59701102090E9970A5
:101D6000120EDA700B4B0022DA700D4B1B78002B31
:101D700018D1084BDB7801221343DAB2054BDA7035
:101D80001BE0C0465806002000FEFFFF04CE0010F6
:101D9000440B0020480A0020D80A00209C0A00209A
:101DA000440A0020CB4B1B78042B06D1CA4BDB78AE
:101DB00002221343DAB2C84BDA70C64B5B78002BB1
:101DC00004D1C54BDA78C44BDA7017E0C14B5B78AD
:101DD000012B07D1C04BDB7804221343DAB2BE4B90
:101DE000DA700BE0BB4B5B78022B07D1BA4BDB7888
:101DF00008221343DAB2B84BDA70B6E1B5E1B74B5B
:101E0000181C01F0F7FC031C1A1CB54B111C1970AF
:101E10001104090E59701102090E9970120EDA7030
:101E2000AF4B5B789B00DAB2AD4B1B78DBB2134350
:101E3000DBB2DAB2A84B1A71A74B00221A71A84B79
:101E40001B78002B07D1A44B1B7901221343DAB274
:101E5000A14B1A710AE0A24B1B78042B06D19E4BB2
:101E60001B7902221343DAB29B4B1A719C4B5B78AD
:101E7000002B04D1984B1A79974B1A712FE0984B8D
:101E80005B78012B07D1944B1B7904221343DAB200
:101E9000914B1A7123E0924B5B78022B07D18E4B4A
:101EA0001B7908221343DAB28B4B1A7117E08C4B63
:101EB0005B78032B07D1884B1B790C221343DAB2D2
:101EC000854B1A710BE0864B5B78042B07D1824B54
:101ED0001B7910221343DAB27F4B1A7145E144E1BA
:101EE000804C3A1C7D4B101C191C01F01FFD3B1C43
:101EF000211C1A1C0823081C111C1A1C06F048FE81
:101F0000784B9B88181C06F0A7FC031C0C1C181CA3
:101F1000211C754A754B05F08BFE031C0C1C181C0C
:101F2000211C06F05BFD021C6B4B1A616D4B1B887C
:101F3000181C06F091FC031C0C1C181C211C6A4A7E
:101F40006A4B05F075FE031C0C1C181C211C06F0C6
:101F500045FD021C604B9A60624BDB88181C06F042
:101F60007BFC031C0C1C181C211C5F4A5F4B05F0FA
:101F70005FFE031C0C1C181C211C06F02FFD021C0C
:101F8000554B5A61574B5B88181C06F065FC031CC7
:101F90000C1C181C211C544A544B05F049FE031C10
:101FA0000C1C181C211C06F019FD021C4A4BDA609F
:101FB000DBE04F4C3A1C494B101C191C01F0FEFC95
:101FC0003B1C211C1A1C0823081C111C1A1C06F09F
:101FD000DFFD474B9B881BB2181C06F03DFC031C21
:101FE0000C1C181C211C404A404B05F021FE031C10
:101FF0000C1C181C211C06F0F1FC021C364B1A624A
:102000003B4B1B881BB2181C06F026FC031C0C1C47
:10201000181C211C344A354B05F00AFE031C0C1C0D
:10202000181C211C06F0DAFC021C2B4B9A61304B69
:10203000DB881BB2181C06F00FFC031C0C1C181CC0
:10204000211C294A294B05F0F3FD031C0C1C181C0C
:10205000211C06F0C3FC021C1F4B5A62244B5B88F8
:102060001BB2181C06F0F8FB031C0C1C181C211CCE
:102070001D4A1E4B05F0DCFD031C0C1C181C211C0A
:1020800006F0ACFC021C144BDA616EE0194C3A1CF1
:10209000124B101C191C01F0D5FC3B1C211C1A1CF6
:1020A0000823081C111C1A1C06F072FD114B9A889B
:1020B000094B9A850F4B1B889AB2074B1A850D4B1B
:1020C000DB889AB2044BDA850A4B5A88024B5A8550
:1020D0004BE0C046440A0020480A00205806002071
:1020E000B40A0020340A00209A9999999999B93F25
:1020F000A00A00202C0B00201F4B181C01F0EAFC4A
:10210000031C1A1C1D4B111C1980120C5A801B4BEE
:102110001B88181C06F0A0FB031C0C1C181C211C9F
:10212000174A184B05F084FD031C0C1C181C211CBD
:1021300006F054FC021C144B1A63104B5B88181CED
:1021400006F08AFB031C0C1C181C211C0C4A0D4BAE
:1021500005F06EFD031C0C1C181C211C06F03EFC37
:10216000021C094B5A6300E0C0460720FFF72EFA15
:10217000BD4603B090BDC04658060020CC0A0020E2
:102180009A9999999999B93F480A002098B500AF52
:10219000764B181C0221FFF785FA744B181C00219E
:1021A000FFF770FA031C1A1C714B1A806F4B181C36
:1021B0000121FFF767FA031C1A1C6D4B5A806B4B09
:1021C000181C0221FFF75EFA031C1A1C684BDA8008
:1021D000664B181C0321FFF755FA031C1A1C644BAD
:1021E0001A80644B9B68624A52889A18614B9A60C5
:1021F000604B5B685E4A12889A185E4B5A605D4B72
:10220000DB685B4A92889A185A4BDA60594B1B6913
:10221000574AD2889A18574B1A61574B9B781F2BF5
:1022200000D09BE0534B5B685A09534B5A60514BAB
:10223000DB685A09504BDA604E4B9B685A094E4B8B
:102240009A604C4B1B695A094B4B1A61494B00224F
:102250009A60484B00225A60464B0022DA60454B98
:1022600000221A61444B1B69181C06F031FB031C49
:102270000C1C181C211C414A414B05F0D9FC031CC5
:102280000C1C181C211C3F4A3F4B05F06BFF031C24
:102290000C1C181C211C06F0A1FB021C3B4BDA6035
:1022A000354B9B68181C06F013FB031C0C1C181CF8
:1022B000211C374A374B05F0BBFC031C0C1C181CB7
:1022C000211C354A354B05F04DFF031C0C1C181C16
:1022D000211C06F083FB021C2C4B5A60264BDB684A
:1022E000181C06F0F5FA031C0C1C181C211C2C4AA7
:1022F0002C4B05F09DFC031C0C1C181C211C2A4AAD
:102300002A4B05F053F8031C0C1C181C211C06F06A
:1023100065FB021C1D4B9A60174B5B68181C06F08E
:10232000D7FA031C0C1C181C211C1D4A1D4B05F060
:102330007FFC031C0C1C181C211C1D4A1D4B05F0A6
:1023400035F8031C0C1C181C211C06F047FB021C52
:102350000E4B1A60084B00229A7005E0064B9B78E2
:102360000133DAB2044B9A70BD4698BD00080348A9
:10237000AC0A00208C070020B80A0020ACADD85F62
:10238000764F9E3F9CC420B072384E40340B0020E4
:10239000AEB6627FD93DB93FCE1951DA1BFC03407E
:1023A00017B7D100DE02B93F3BDF4F8D976EDA3FA2
:1023B000E4141DC9E53FDC3F80B500AF044B181C99
:1023C0000021FFF74DF900F0A9FDBD4680BDC046D4
:1023D0000001044890B583B000AFA34B5B88181C84
:1023E00006F03AFA031C0C1C181C211C9F4AA04B37
:1023F00005F01EFC031C0C1C181C211C06F0EEFA38
:10240000031C3B6038689B4904F0D2FB031E21D0BB
:102410003868994904F0C2FB031E1BD0386806F0E7
:1024200089FA031C0C1C181C211C944A944B05F0BF
:10243000FFFB031C0C1C181C211C924A924B05F03C
:1024400091FE031C0C1C181C211C06F0C7FA031C6F
:102450007B60BEE03868884904F0AAFB031E21D0E7
:1024600038688A4904F09AFB031E1BD0386806F0CE
:1024700061FA031C0C1C181C211C854A854B05F0B5
:10248000D7FB031C0C1C181C211C834A834B05F032
:1024900069FE031C0C1C181C211C06F09FFA031C6F
:1024A0007B6096E03868794904F082FB031E21D0F6
:1024B00038687B4904F072FB031E1BD0386806F0B5
:1024C00039FA031C0C1C181C211C764A764B05F0AB
:1024D000AFFB031C0C1C181C211C744A744B05F028
:1024E00041FE031C0C1C181C211C06F077FA031C6F
:1024F0007B606EE038686A4904F05AFB031E28D0FE
:10250000386806F017FA031C0C1C181C211C694AB9
:10251000694B04F009FB031E1BD0386806F00AFA69
:10252000031C0C1C181C211C644A654B05F080FB25
:10253000031C0C1C181C211C5E4A624B05F012FE89
:10254000031C0C1C181C211C06F048FA031C7B60A1
:102550003FE0386806F0EEF9031C0C1C181C211C27
:10256000544A554B04F0EAFA031E21D03868564904
:1025700004F014FB031E1BD0386806F0DBF9031CC3
:102580000C1C181C211C514A514B05F051FB031C1B
:102590000C1C181C211C4F4A4F4B05F0E3FD031C7B
:1025A0000C1C181C211C06F019FA031C7B6010E09F
:1025B0003868454904F0FCFA031E02D0474B7B60A3
:1025C00007E038682B4904F0E9FA031E01D0002324
:1025D0007B60434B5B68181C424904F0CFFB031C33
:1025E000181C04F0F9FA031C9AB23F4B5A803C4B7A
:1025F000DB68181C3B4904F0C1FB031C181C04F0E9
:10260000EBFA031C9AB2384B9A807868354904F08B
:10261000B5FB031C181C04F0DFFA031C9AB2324B02
:102620001A80114B9A88304BDA80022001F084FC2A
:10263000802359002D4A2C4B081C111C1A1C00F039
:10264000E7FD0223FF33191C284A274B081C111CE5
:102650001A1C00F0DDFD264B181C0021FFF700F8C6
:10266000BD4603B090BDC046D00A00209A99999902
:102670009999B93F0040364300C049433D0AD7A36A
:10268000703DC23F83C0CAA145F6394000206B436C
:10269000302AA913D044D43F1D5A643BDFAF4E40CB
:1026A00000407543C66D3480B7C003408FC2F52823
:1026B0005CB58140CDCCCCCCCC546F40A2B437F8C3
:1026C000C2842240CC6FA14000E07A43DBF97E6AED
:1026D000BC8442403333333333F5C1400000C84239
:1026E000340B0020000020413C0A00204C0B00204D
:1026F0000002044880B500AF1E4B1B78012B18D197
:102700001D4B1B78002B10D01B4B5B88002B06D178
:10271000194B00221A70184B01221A7105E0164B52
:102720005B88013B9AB2144B5A80124B00221A70FC
:1027300005E0104B1B780133DAB20E4B1A700F4BC9
:10274000181C01F001FE021C0D4B1A600C4B1B689B
:102750000C4A101C191C4B2206F01AFA094B181CC3
:102760004B2101F0B7FD084B181C0021FEF778FF44
:10277000BD4680BDA0070020940A0020480A002022
:10278000A80A0020DC0A00200003044880B582B0BB
:1027900000AF021CFB1D1A70FB1D1B787F2B09D894
:1027A000064BFA1D1278111C1F220A40012191408C
:1027B0000A1C1A60BD4602B080BDC04600E100E0C0
:1027C000B0B582B000AF021C3960FB1D1A70FB1D52
:1027D0001B787F2B27D82D4CFB1D1B785BB29B08E9
:1027E0002A49FA1D127852B29208C0329200525809
:1027F000F91D0978081C03210140C900081CFF21AC
:102800008140C94311403A689201FF200240F81DFF
:102810000078051C03202840C00082400A43C033D2
:102820009B001A512EE01A4CFB1D1B781A1C0F231B
:102830001340083B9908164AFB1D1B78181C0F23F0
:102840000340083B9B0806339B00D3185B68FA1DC6
:102850001278101C03220240D200101CFF2282407A
:10286000D2431A403B689B01FF200340F81D0078CB
:10287000051C03202840C00083401A438B1D9B0089
:10288000E3185A60BD4602B0B0BDC04600E100E0AA
:1028900000ED00E080B582B000AF78607B688022F8
:1028A0005200DA60BD4602B080BDC04680B582B03D
:1028B00000AF78600A1CFB1C1A70FB1C1B780122FD
:1028C0009A407B68DA60BD4602B080BD80B582B0B8
:1028D00000AF78607B680122DA60BD4602B080BD3F
:1028E00080B582B000AF78600A1CBB1C1A80BB1C8C
:1028F0001A887B685A63BD4602B080BD80B582B03D
:1029000000AF78600A1CBB1C1A80BB1C1A887B684D
:10291000DA63BD4602B080BD80B582B000AF78609A
:1029200039607B683A681A61BD4602B080BDC04616
:1029300080B582B000AF78600A1CFB1C1A707B68FF
:10294000A4229A58FB1C1B78012199400B1C1A43A6
:102950007B68A4215A50BD4602B080BD80B500AF4F
:10296000534B181C002102F093FF514B181CFFF72A
:1029700091FF4F4B181C002102F0AEFF4D4A4E4B09
:10298000101C191C02F0C2FF4C4A4D4B101C191CA4
:1029900002F0BCFF4B4A4C4B101C191C02F0B6FF56
:1029A000444A4A4B101C191CFFF7A8FF414A484BE8
:1029B000101C191CFFF794FF404A464B101C191CB1
:1029C000FFF79CFF3D4A444B101C191CFFF788FF82
:1029D0003C4A424B101C191CFFF790FF394A404BF0
:1029E000101C191CFFF77CFF314B181C0521FFF749
:1029F00093FF2F4B181C5021FFF78EFF2C4AA0236A
:102A0000DB00101C191CFFF787FF2A4B181C002144
:102A1000FFF78EFF294B181C0021FFF789FF294B78
:102A2000181C0021FFF784FF224B181C00210222F2
:102A300002F0A0FF214B181C0021032202F09AFF94
:102A4000204B181C0021002202F094FF17200321C4
:102A5000FFF7B6FE1720FFF799FE18200921FFF7B0
:102A6000AFFE1820FFF792FE15200221FFF7A8FE07
:102A70001520FFF78BFE0E4B181C0021FFF716FFE9
:102A80000B4B181C0121FFF711FF094B181C0221E9
:102A9000FFF70CFF074B181CFFF718FF074B181C1C
:102AA000FFF714FF074B181CFFF710FFBD4680BD52
:102AB00000000448000104485005002000020448BA
:102AC000580500200003044860050020DC050000D4
:102AD000B80B00004F1200009F240000720B000092
:102AE000E316000080B582B000AF021CFB1D1A7017
:102AF000FB1D1B787F2B09D8064BFA1D1278111C81
:102B00001F220A40012191400A1C1A60BD4602B0F2
:102B100080BDC04600E100E0B0B582B000AF021C4D
:102B20003960FB1D1A70FB1D1B787F2B27D82D4C9D
:102B3000FB1D1B785BB29B082A49FA1D127852B222
:102B40009208C03292005258F91D0978081C0321DE
:102B50000140C900081CFF218140C94311403A6867
:102B60009201FF200240F81D0078051C0320284038
:102B7000C00082400A43C0339B001A512EE01A4C19
:102B8000FB1D1B781A1C0F231340083B9908164A9B
:102B9000FB1D1B78181C0F230340083B9B080633C2
:102BA0009B00D3185B68FA1D1278101C03220240A8
:102BB000D200101CFF228240D2431A403B689B0186
:102BC000FF200340F81D0078051C03202840C000AA
:102BD00083401A438B1D9B00E3185A60BD4602B028
:102BE000B0BDC04600E100E000ED00E080B582B07D
:102BF00000AF78607A6882235B00D358802292000D
:102C00001A43111C7A6882235B00D150BD4602B082
:102C100080BDC04680B582B000AF78603960396849
:102C20007A6888235B00D150BD4602B080BDC046A3
:102C300080B584B000AFF860B9607A607B681968CD
:102C4000FB68BA68A0329200D150BD4604B080BD86
:102C500080B584B000AFF8607A600B23FB180A1CC3
:102C60001A700B23FB181B787A689A40FB685A602D
:102C7000BD4604B080BDC04680B500AF4C4A4D4B48
:102C8000101C09211A1C01F0E7FF494A494B101C8E
:102C900003211A1C01F0E0FF454A464B101C042199
:102CA0001A1C01F0D9FF424A424B101C05211A1C84
:102CB00001F0D2FF404A414B101C191C03F03CF9B3
:102CC0003F4A404B101C191C03F09CF93C4B181C4C
:102CD000032103F03FFA384B181C03F059F9384A26
:102CE000394B101C191C03F051FA354A374B1B683D
:102CF000101C191CFFF78EFF314A344B5B68101C07
:102D0000191CFFF787FF2E4A304B9B68101C191CBB
:102D1000FFF780FF2A4A2D4BDB68101C191CFFF7B8
:102D200079FF274A2A4B101C04211A1C03F086FA4B
:102D3000234A284B101C05211A1C03F07FFA204A55
:102D4000254B101C06211A1C03F078FA1C4A234B51
:102D5000101C07211A1C03F071FA194A204B101C91
:102D600000211A1CFFF764FF154A1E4B101C01219D
:102D70001A1CFFF75DFF124A1B4B101C02211A1C84
:102D8000FFF756FF0E4A194B101C03211A1CFFF7C0
:102D90004FFF0B4B181C0321002203F0BDFA132038
:102DA0001121FFF7B9FE1320FFF79CFEBD4680BD41
:102DB00000020440A407002000000348680500202A
:102DC000000803488005002094050020A00500208D
:102DD000B0050020C0050020D0050020E00500203F
:102DE000F0050020F4050020F8050020FC05002077
:102DF00080B500AF0E4A0F4B101C04211A1C01F0C5
:102E00002BFF0B4A0C4B101C05211A1C01F024FF50
:102E1000074A0A4B101C06211A1C01F01DFF044A28
:102E2000074B101C07211A1C01F016FFBD4680BD80
:102E300000010440180600200006002008060020BB
:102E40001006002080B582B000AF021CFB1D1A7076
:102E5000BB1D0A1C1A70FB1D1B78012B1CD002DC49
:102E6000002B05D054E0022B2AD0032B3CD04FE09E
:102E7000BB1D1B78002B06D0274B181C04210122F8
:102E8000FFF7E6FE44E0244A80235B02101C042185
:102E90001A1CFFF7DDFE3BE0BB1D1B78002B06D0A4
:102EA0001D4B181C05210122FFF7D2FE30E01A4A03
:102EB00080235B02101C05211A1CFFF7C9FE27E0C6
:102EC000BB1D1B78002B06D0134B181C06210122BA
:102ED000FFF7BEFE1CE0104A80235B02101C062197
:102EE0001A1CFFF7B5FE13E0BB1D1B78002B06D0A4
:102EF000094B181C07210122FFF7AAFE07E0064A2A
:102F000080235B02101C07211A1CFFF7A1FEC0469C
:102F1000BD4602B080BDC0460001044080B500AF90
:102F2000024B181CFFF762FEBD4680BD0008034837
:102F300080B582B000AF021CFB1D1A70FB1D1B7810
:102F40007F2B09D8064BFA1D1278111C1F220A404C
:102F5000012191400A1C1A60BD4602B080BDC046E6
:102F600000E100E0B0B582B000AF021C3960FB1D8B
:102F70001A70FB1D1B787F2B27D82D4CFB1D1B784F
:102F80005BB29B082A49FA1D127852B29208C032ED
:102F900092005258F91D0978081C03210140C9000C
:102FA000081CFF218140C94311403A689201FF206B
:102FB0000240F81D0078051C03202840C000824014
:102FC0000A43C0339B001A512EE01A4CFB1D1B789C
:102FD0001A1C0F231340083B9908164AFB1D1B7847
:102FE000181C0F230340083B9B0806339B00D31893
:102FF0005B68FA1D1278101C03220240D200101CDC
:10300000FF228240D2431A403B689B01FF200340CD
:10301000F81D0078051C03202840C00083401A4397
:103020008B1D9B00E3185A60BD4602B0B0BDC04680
:1030300000E100E000ED00E080B582B000AF786014
:103040000A1CFB1C1A707B68DB68072293431A1C5E
:10305000FB1C1B7807210B401A437B68DA60BD46D6
:1030600002B080BD80B582B000AF78607B681B681D
:1030700040221A437B681A60BD4602B080BDC0463C
:1030800080B582B000AF78607B681B6840229343B4
:103090001A1C7B681A60BD4602B080BD80B582B044
:1030A00000AF78607B681B68012293431A1C7B6821
:1030B0001A60BD4602B080BD80B584B000AFF86034
:1030C0007A600B23FB180A1C1A70FB681B68FA68ED
:1030D000126892680B217918097807208840011C32
:1030E000C94311400B22BA18127878689040021C2C
:1030F0000A439A60BD4604B080BDC04680B582B028
:1031000000AF786039607B681B687A681268116864
:103110003A680A431A60BD4602B080BD80B500AF70
:10312000314A324B101C05211A1C01F095FD2E4A24
:103130002F4B101C04211A1C01F08EFD2D4A2E4B22
:10314000101C01211A1C02F077F82C4B181CFFF7F9
:1031500089FF2A4B181C0021FFF76EFF274B181C14
:10316000FFF78EFF254B181CFFF77CFF234A244BEB
:10317000101C191C01F034FF204B181CFFF780FFB6
:10318000204B181C02F032F91F4B181C02F02EF9CC
:103190001D4A80235B02101C191CFFF7AFFF1B4B5D
:1031A0000720191C01F066FE174B181C0021032292
:1031B000FFF782FF07200121FFF7D4FE0720FFF76A
:1031C000B7FE0C4B181C0021042201F0F3FF094B41
:1031D000181C0021022201F0EDFF084B181CFFF71C
:1031E0005DFFBD4680BDC0460000044020060020B3
:1031F000AC07002000000450C0D8A7000002045013
:10320000280600203806002058060020010700008C
:1032100080B584B000AFF860B9607A60FB68802246
:103220005200934204D00222FF32934237D072E020
:10323000FB68DB00DA083D4BD200D2085968490F21
:1032400049070A435A60394B00221A74BB681A783E
:10325000364B5A74354B00229A74BB685A78334BFC
:10326000DA74324B00221A75304B00225A752F4BFC
:103270005B7DDAB2BB68DB785B00D9B2BB689B7858
:10328000DBB20B43DBB21343DBB2DAB2274B5A7526
:10329000264B00229A75254B0022DA753BE0FB682D
:1032A000DB00DA08214BD200D2085968490F4907E0
:1032B0000A435A607B681B881B0A9BB2DAB21B4B1D
:1032C0001A747B681B88DAB2184B5A747B685B8867
:1032D0001B0A9BB2DAB2154B9A747B685B88DAB230
:1032E000124BDA747B689B881B0A9BB2DAB20F4BD5
:1032F0001A757B689B88DAB20C4B5A757B68DB8841
:103300001B0A9BB2DAB2094B9A757B68DB88DAB28A
:10331000064BDA75C046054B181C02F067F8034BE4
:10332000181C02F045F9BD4604B080BD38060020E7
:1033300080B584B000AF786039600F23FB183A681D
:10334000127C1A700F23FB181B78032B04D8082358
:10335000FB1800221A7017E00F23FB181B78042BB0
:1033600004D10823FB1804221A700DE00F23FB1868
:103370001B78062B04D00F23FB181B78052B03D1D9
:103380000823FB1806221A700F23FB183A68527C98
:103390001A700F23FB181B78002B04D00823FB188E
:1033A00001225A7003E00823FB1800225A700823F8
:1033B000FB1800229A700823FB1800221A710F23B1
:1033C000FB183A68927C1A700F23FB181B789B0934
:1033D000DBB21A1C0123134007D00823FB18062276
:1033E0009A700823FB1801221A710F23FB183A6800
:1033F000D27C1A700F23FB181B78DB09DBB21A1C76
:103400000123134007D00823FB1801229A700823D8
:10341000FB1801221A710F23FB181B789B09DBB2E2
:103420001A1C0123134003D00823FB1802229A70B0
:103430000F23FB181B785B09DBB21A1C0123134016
:1034400003D00823FB1803229A700F23FB181B7864
:103450001B09DBB21A1C0123134003D00823FB18FD
:1034600004229A700F23FB181B78DB08DBB21A1CAE
:103470000123134007D00823FB1805229A70082364
:10348000FB1801221A717A680823FB18111C1A1CF8
:103490000523081C111C1A1C05F07AFB7868BD4630
:1034A00004B080BD80B586B000AF78600C23FB18F7
:1034B0000022DA701723FB187A68127C1A7017231F
:1034C000FB181B78032B09D91723FB181B78062B35
:1034D00004D01723FB181B78072B04D10C23FB18EF
:1034E00000221A701CE01723FB181B78042B04D051
:1034F0001723FB181B78052B04D10C23FB1804227F
:103500001A700DE01723FB181B78082B04D0172323
:10351000FB181B78092B03D10C23FB1808221A7007
:103520000C23FB1800225A701723FB187A68927C30
:103530001A701723FB181B78DB09DBB21A1C012356
:10354000134003D00C23FB1801225A701723FB18D9
:103550001B789B09DBB21A1C0123134003D00C23F8
:10356000FB1802225A701023FB180C22BA1812689A
:103570001A601023FA1800231178FF200140FF2061
:1035800083430B435178FF2001400902094803405F
:103590000B439178FF2001400904074803400B4387
:1035A000D27812061B021B0A1343181CBD4606B034
:1035B00080BDC046FF00FFFFFFFF00FF80B586B063
:1035C00000AF78601723FB187A68127C1A701723F3
:1035D000FB181B78032B09D91723FB181B780B2B1F
:1035E00004D01723FB181B780D2B04D10C23FB18D8
:1035F00000221A7012E01723FB181B780E2B04D040
:103600001723FB181B780F2B04D10C23FB180E2259
:103610001A7003E00C23FB1804221A700C23FB1809
:1036200000225A700C23FB180022DA701723FB18B3
:103630007A68927C1A701723FB181B78DB09DBB2BF
:103640001A1C0123134007D00C23FB1801225A70C7
:103650000C23FB180122DA701723FB181B78DB08F8
:10366000DBB21A1C0123134003D00C23FB180222E7
:103670005A701723FB181B789B08DBB21A1C012316
:10368000134003D00C23FB1803225A701723FB1896
:103690001B785B08DBB21A1C0123134003D00C23F8
:1036A000FB1804225A701723FB181B7801221340C1
:1036B00003D00C23FB1805225A701023FB180C2290
:1036C000BA1812681A601023FA1800231178FF2024
:1036D0000140FF2083430B435178FF200140090242
:1036E000094803400B439178FF2001400904074833
:1036F00003400B43D27812061B021B0A1343181C0B
:10370000BD4606B080BDC046FF00FFFFFFFF00FFC3
:1037100080B586B000AF78601723FB187A68127CFA
:103720001A701723FB181B78032B04D80C23FB18E3
:1037300000221A700DE01723FB181B78042B04D00D
:103740001723FB181B78052B03D10C23FB1804222D
:103750001A700C23FB1800225A700C23FB1800224D
:10376000DA701723FB187A68927C1A701723FB18FB
:103770001B78DB09DBB21A1C0123134003D00C2396
:10378000FB1801225A701723FB181B789B09DBB228
:103790001A1C0123134003D00C23FB1802225A7079
:1037A0001023FB180C22BA1812681A601023FA189A
:1037B00000231178FF200140FF2083430B43517801
:1037C000FF2001400902094803400B439178FF2084
:1037D00001400904064803400B43D27812061B023D
:1037E0001B0A1343181CBD4606B080BDFF00FFFF37
:1037F000FFFF00FF80B586B000AF78601723FB188D
:103800007A68127C1A701723FB181B78032B04D8D4
:103810000C23FB1800221A700DE01723FB181B78ED
:10382000042B04D01723FB181B78052B03D10C2382
:10383000FB1804221A700C23FB1800225A700C2368
:10384000FB180022DA701723FB187A68927C1A7032
:103850001723FB181B78DB09DBB21A1C012313406A
:1038600007D00C23FB1801225A700C23FB180122ED
:10387000DA701723FB181B789B09DBB21A1C012393
:10388000134007D00C23FB1802225A700C23FB189C
:103890000122DA701723FB181B785B09DBB21A1CB4
:1038A0000123134007D00C23FB1803225A700C236A
:1038B000FB180122DA701723FB181B789B08DBB278
:1038C0001A1C0123134007D00C23FB1804225A7042
:1038D0000C23FB180122DA701023FB180C22BA18F3
:1038E00012681A601023FA1800231178FF20014093
:1038F000FF2083430B435178FF2001400902094810
:1039000003400B439178FF2001400904064803401F
:103910000B43D27812061B021B0A1343181CBD4628
:1039200006B080BDFF00FFFFFFFF00FF80B584B041
:1039300000AF786039603B681B7C1B029AB23B6821
:103940005B7C9BB213439BB29AB20823FB181A808C
:103950003B689B7C1B029AB23B68DB7C9BB21343A7
:103960009BB29AB20823FB185A803B681B7D1B024E
:103970009AB23B685B7D9BB213439BB29AB2082319
:10398000FB189A803B689B7D1B029AB23B68DB7DEB
:103990009BB213439BB29AB20823FB18DA807A6871
:1039A0000823FB18111C1A1C0823081C111C1A1CC4
:1039B00005F0EEF87868BD4604B080BD80B584B0EF
:1039C00000AF786039603B681B7C1B029AB23B6891
:1039D0005B7C9BB213439AB20823FB181A803B68A6
:1039E0009B7C1B029AB23B68DB7C9BB213439AB26E
:1039F0000823FB185A803B681B7D1B029AB23B6868
:103A00005B7D9BB213439AB20823FB189A803B68F4
:103A10009B7D1B029AB23B68DB7D9BB213439AB23B
:103A20000823FB18DA807A680823FB18111C1A1C7B
:103A30000823081C111C1A1C05F0AAF87868BD465A
:103A400004B080BD80B584B000AF786039603B6859
:103A50001B7C1B029AB23B685B7C9BB213439BB2FC
:103A60009AB20823FB181A803B689B7C1B029AB20F
:103A70003B68DB7C9BB213439BB29AB20823FB18D2
:103A80005A803B681B7D1B029AB23B685B7D9BB2F0
:103A900013439BB29AB20823FB189A803B689B7D24
:103AA0001B029AB23B68DB7D9BB213439BB29AB276
:103AB0000823FB18DA807A680823FB18111C1A1CEB
:103AC0000823081C111C1A1C05F062F87868BD4612
:103AD00004B080BD80B584B000AF78607B681B7C8B
:103AE0001B029AB27B685B7C9BB213439BB29AB277
:103AF0000823FB181A807B689B7C1B029AB27B68A8
:103B0000DB7C9BB213439BB29AB20823FB185A800A
:103B10000C23FB180822BA1812681A600C23FA1832
:103B2000002311880904090C1B0C1B040B43528849
:103B300012041B041B0C1343181CBD4604B080BDAB
:103B400080B582B000AF78600A1CFB1C1A70FB1CA9
:103B50001B7801229A407B685A60BD4602B080BD46
:103B600080B500AF244A254B101C0B211A1C01F014
:103B700073F8214A214B101C0C211A1C01F06CF81F
:103B80001D4A1E4B101C0D211A1C01F065F81C4A21
:103B90001C4B101C02211A1C01F05EF8184A194B2C
:103BA000101C03211A1C01F057F8154A154B101C64
:103BB00004211A1C01F050F8114A124B101C052167
:103BC0001A1C01F049F80C4A0F4B101C02211A1C58
:103BD00001F042F8084B181C0B21FFF7B1FF064B10
:103BE000181C0C21FFF7ACFF034B181C0D21FFF72D
:103BF000A7FFBD4680BDC0460002044078060020F5
:103C000000040440BC070020B407002080B582B047
:103C100000AF021CFB1D1A70FB1D1B787F2B09D8FF
:103C2000064BFA1D1278111C1F220A4001219140F7
:103C30000A1C1A60BD4602B080BDC04600E100E02B
:103C4000B0B582B000AF021C3960FB1D1A70FB1DBD
:103C50001B787F2B27D82D4CFB1D1B785BB29B0854
:103C60002A49FA1D127852B29208C0329200525874
:103C7000F91D0978081C03210140C900081CFF2117
:103C80008140C94311403A689201FF200240F81D6B
:103C90000078051C03202840C00082400A43C0333E
:103CA0009B001A512EE01A4CFB1D1B781A1C0F2387
:103CB0001340083B9908164AFB1D1B78181C0F235C
:103CC0000340083B9B0806339B00D3185B68FA1D32
:103CD0001278101C03220240D200101CFF228240E6
:103CE000D2431A403B689B01FF200340F81D007837
:103CF000051C03202840C00083401A438B1D9B00F5
:103D0000E3185A60BD4602B0B0BDC04600E100E015
:103D100000ED00E080B582B000AF7860081C111C97
:103D2000FB1C021C1A70BB1C0A1C1A70FB1C1878A6
:103D3000FB1C1B787A6806339B00D3185B6807224C
:103D400093431A1CBB1C1B781A437968831D9B0084
:103D5000CB185A60BD4602B080BDC04680B582B067
:103D600000AF78607B689B6BDBB27F229343DBB252
:103D7000181CBD4602B080BD80B582B000AF78602F
:103D80007B681B6C0F22934302221A437B681A64E0
:103D9000BD4602B080BDC04680B584B000AFF860BB
:103DA0007A600B23FB180A1C1A70F9680B23FB18A6
:103DB0001A787B68081C111C1A1C02F001F8BD4619
:103DC00004B080BD80B582B000AF786039607B6898
:103DD0003A68DA64BD4602B080BDC04680B582B0A4
:103DE00000AF7860081C111CFB1C021C1A70BB1C65
:103DF0000A1C1A70FB1C1878FB1C1B787A680633A7
:103E00009B00D3185B68502293431A1C7968831D6A
:103E10009B00CB185A607968FB1C1A78BB1C1B7876
:103E2000081C111C1A1CFFF775FFBD4602B080BDAF
:103E300080B500AF1E4A1F4B101C02211A1C00F057
:103E40000BFF1B4A1C4B101C03211A1C00F004FF23
:103E50001A4B181C01F07CFE184A194B101C191C37
:103E600001F0D4FD154B181C00210122FFF7B6FF0D
:103E7000124A8023DB01101C191C01F04FFE0F4B6E
:103E8000181C08210322FFF787FF0E4B0C20191C7A
:103E900000F0F0FF0C200A21FFF7D2FE0C20FFF704
:103EA000B5FE064B181CFFF767FFBD4680BDC04638
:103EB0000000044080060020C407002000400048A5
:103EC00088060020010C000080B584B000AF786047
:103ED0000A1CFB1C1A700F23FB1800221A701FE02B
:103EE000C046144B181CFFF739FF031E802BF8D077
:103EF000104A80239B01101C191CFFF763FF0D491A
:103F00000F23FB181B787A68D3181B781A1C8023A0
:103F1000CA500F23FB181A780F23FB1801321A70AE
:103F20000F23FA18FB1C12781B789A42D8D3BD468F
:103F300004B080BD0040004880B586B000AF021CD0
:103F4000FB1D1A700823FB18CC221A700823FB18DB
:103F5000DD225A700823FB180A229A700823FB18E6
:103F6000FA1D1278DA700823FB1800221A71082350
:103F7000FB1800225A710823FB1800229A710823AB
:103F8000FB180022DA710823FB1800221A7208239A
:103F9000FB1800225A721723FB1800221A701623EE
:103FA000FB1800221A7013E01623FB181B78082256
:103FB000BA18D15C1723FB181722BA1812788A187E
:103FC0001A701623FB181A781623FB1801321A7080
:103FD0001623FB181B78092BE6D91723FB181D2283
:103FE0001A700823FB181722BA1812789A7208233D
:103FF000FB180D22DA720823FB180A221A73082311
:10400000FB18181C0D21FFF75FFFBD4606B080BDF1
:1040100080B582B000AF021CFB1D1A70FB1D1B781F
:104020007F2B09D8064BFA1D1278111C1F220A405B
:10403000012191400A1C1A60BD4602B080BDC046F5
:1040400000E100E0B0B582B000AF021C3960FB1D9A
:104050001A70FB1D1B787F2B27D82D4CFB1D1B785E
:104060005BB29B082A49FA1D127852B29208C032FC
:1040700092005258F91D0978081C03210140C9001B
:10408000081CFF218140C94311403A689201FF207A
:104090000240F81D0078051C03202840C000824023
:1040A0000A43C0339B001A512EE01A4CFB1D1B78AB
:1040B0001A1C0F231340083B9908164AFB1D1B7856
:1040C000181C0F230340083B9B0806339B00D318A2
:1040D0005B68FA1D1278101C03220240D200101CEB
:1040E000FF228240D2431A403B689B01FF200340DD
:1040F000F81D0078051C03202840C00083401A43A7
:104100008B1D9B00E3185A60BD4602B0B0BDC0468F
:1041100000E100E000ED00E080B582B000AF786023
:10412000081C111CFB1C021C1A70BB1C0A1C1A70F8
:10413000FB1C1878FB1C1B787A6806339B00D3188D
:104140005B68072293431A1CBB1C1B781A437968CF
:10415000831D9B00CB185A60BD4602B080BDC0468F
:1041600080B582B000AF78607B689B6BDBB27F224A
:104170009343DBB2181CBD4602B080BD80B582B04F
:1041800000AF78607B681B6C0F22934302221A43B6
:104190007B681A64BD4602B080BDC04680B584B05D
:1041A00000AFF8607A600B23FB180A1C1A70F968DC
:1041B0000B23FB181A787B68081C111C1A1C01F0D1
:1041C000FFFDBD4604B080BD80B582B000AF786011
:1041D00039607B683A68DA64BD4602B080BDC0468B
:1041E00080B582B000AF7860081C111CFB1C021C5B
:1041F0001A70BB1C0A1C1A70FB1C1878FB1C1B785D
:104200007A6806339B00D3185B68502293431A1CCC
:104210007968831D9B00CB185A607968FB1C1A785B
:10422000BB1C1B78081C111C1A1CFFF775FFBD4630
:1042300002B080BD80B500AF214A224B101C002186
:104240001A1C00F009FD1E4A1F4B101C01211A1CEC
:1042500000F002FD9023DB05181C01F079FC90238F
:10426000DA051A4B101C191C01F0D0FB9023DB055A
:10427000181C00210522FFF7B3FF9023DA058023E5
:10428000DB01101C191C01F049FC9023DB05181CF4
:1042900008210322FFF782FF0D4B1220191C00F0AA
:1042A000E9FD12200A21FFF7CDFE1220FFF7B0FE34
:1042B0009023DB05181CFFF761FFBD4680BDC0469B
:1042C00000020440940600209C060020A406002062
:1042D0000112000080B584B000AF78600A1CFB1C9E
:1042E0001A700F23FB1800221A7022E0C046902398
:1042F000DB05181CFFF734FF031E802BF7D090233B
:10430000DA0580239B01101C191CFFF75DFF902329
:10431000DB050F22BA18127879688A181278111CF6
:10432000802299500F23FB181A780F23FB180132B3
:104330001A700F23FA18FB1C12781B789A42D5D3F7
:10434000BD4604B080BDC04690B585B000AF786072
:104350000F23FB1803221A70F94B05221A70F84B31
:1043600002225A70F64B45229A700F23FB181B78D5
:104370007A681178F24AD1540F23FB181B78013365
:104380007A685178EE4AD1540F23FB181B78023318
:104390007A689178EA4AD1540F23FB181B780333CB
:1043A0007A68D178E64AD1540F23FB181B7804337E
:1043B0007A681179E24AD1540F23FB181B78053330
:1043C0007A6808321178DE4AD1540F23FB181B7823
:1043D00006337A68083201321178D94AD1540F2352
:1043E000FB181B7807337A68083202321178D44AF6
:1043F000D1540F23FB181B7808337A680832033234
:104400001178CF4AD1540F23FB181B7809337A68EF
:104410000C321178CA4AD1540F23FB181B780A3387
:104420007A680C3201321178C54AD1540F23FB1837
:104430001B780B337A680C3202321178C04AD1549F
:104440000F23FB181B780C337A680C320332117877
:10445000BB4AD1540F23FB181B780D337A681032F6
:104460001178B74AD1540F23FB181B780E337A68A2
:10447000103201321178B24AD1540F23FB181B7845
:104480000F337A68103202321178AD4AD1540F23BB
:10449000FB181B7810337A68103203321178A84A5F
:1044A000D1540F23FB181B7811337A68143211781A
:1044B000A34AD1540F23FB181B7812337A681432A5
:1044C000013211789E4AD1540F23FB181B78133305
:1044D0007A68143202321178994AD1540F23FB18AA
:1044E0001B7814337A68143203321178944AD15409
:1044F0000F23FB181B7815337A6818321178904A0D
:10450000D1540F23FB181B7816337A681832013206
:1045100011788B4AD1540F23FB181B7817337A6814
:10452000183202321178864AD1540F23FB181B78B7
:1045300018337A68183203321178814AD1540F2324
:10454000FB181B7819337A681C3211787C4AD154D5
:104550000F23FB181B781A337A681C32013211784A
:10456000774AD1540F23FB181B781B337A681C320F
:1045700002321178724AD1540F23FB181B781C3376
:104580007A681C32033211786D4AD1540F23FB181C
:104590001B781D337A6820321178694AD1540F2371
:1045A000FB181B781E337A68203201321178644A76
:1045B000D1540F23FB181B781F337A682032023244
:1045C00011785F4AD1540F23FB181B7820337A6887
:1045D0002032033211785A4AD1540F23FB181B782A
:1045E00021337A6824321178554AD1540F23FB18AD
:1045F0001B7822337A68243201321178504AD15420
:104600000F23FB181B7823337A6824320232117887
:104610004B4AD1540F23FB181B7824337A68243279
:1046200003321178464AD1540F23FB181B782533E7
:104630007A68128D12B2121292B2D1B2404AD1549B
:104640000F23FB181B7826337A68128DD1B23C4AAF
:10465000D1540F23FB181B7827337A68528D120A26
:1046600092B2D1B2364AD1540F23FB181B782833AB
:104670007A68528DD1B2324AD1540F23FB181B787D
:1046800029337A68928D120A92B2D1B22C4AD1544F
:104690000F23FB181B782A337A68928DD1B2284AEF
:1046A000D1540F23FB181B782B337A68D28D12B2AA
:1046B000121292B2D1B2224AD1540F23FB181B78A6
:1046C0002C337A68D28DD1B21D4AD1540F23FB18F6
:1046D0001B782D337A6830321178194AD1540F2360
:1046E000FB181B782E337A68303201321178144A65
:1046F000D1540F23FB181B782F337A6830320232E3
:1047000011780F4AD1540F23FB181B7830337A6885
:104710003032033211780A4AD1540F23FB181B7828
:1047200031337A6834321178054AD1540F23FB189B
:104730001B7832337A6834320132117802E0C04695
:10474000D00900206F4AD1540F23FB181B78333354
:104750007A683432023211786A4AD1540F23FB1836
:104760001B7834337A68343203321178654AD15475
:104770000F23FB181B7835337A683821515C614A66
:10478000D1540F23FB181B7836337A683921515CDA
:104790005C4AD1540F23FB181B7837337A68528F49
:1047A000120A92B2D1B2574AD1540F23FB181B7888
:1047B00038337A68528FD1B2524AD1540F23FB1842
:1047C0001B7839337A683C3211784E4AD1540F2322
:1047D000FB181B783A337A683C3201321178494A27
:1047E000D1540F23FB181B783B337A683C320232DA
:1047F0001178444AD1540F23FB181B783C337A6854
:104800003C32033211783F4AD1540F23FB181B78F6
:104810003D337A684021515C3A4AD1540F23FB184A
:104820001B783E337A684221525A120A92B2D1B2B0
:10483000344AD1540F23FB181B783F337A68422146
:10484000525AD1B22F4AD1540F23FB181B78403350
:104850007A684421515C2B4AD1540F23FB181B78F2
:1048600041337A684521515C264AD1540F23FB1805
:104870001B7842337A684621515C224AD1540F2377
:10488000FB181B7843337A684721515C1D4AD15489
:104890000F23FB181B7844337A684821515C194A6E
:1048A000D1540F23FB181A78164BD218154B9B784E
:1048B0000C217C18101C191C00F07AF8031C2380B2
:1048C0000F23FB181B7845330C22BA181288120AE2
:1048D00092B2D1B20B4AD1540F23FB181B78463346
:1048E0000C22BA181288D1B2064AD1540F23FB18F1
:1048F0001B784733034A0A21D154024B181CBD468A
:1049000005B090BDD009002080B582B000AFBB1DBE
:1049100000221A803CE0BB1C00221A803B1CBA1DFE
:1049200012881A803B1D00221A8021E0BA1C3B1C11
:1049300012881B8853409BB21A1C0123134008D0D5
:10494000BB1C1B885B089AB2BB1C16494A401A80E4
:1049500004E0BB1CBA1C128852081A803B1C3A1C8B
:10496000128852081A803B1D1A883B1D01321A809A
:104970003B1D1B88072BD9D9BB1D1A880A4B520037
:10498000B91C0988D152BB1D1A88BB1D01321A807F
:10499000BB1D1B88FF2BBED9044B01221A70BD46DC
:1049A00002B080BD01A0FFFFD0070020CC0700208F
:1049B00080B586B000AF78600A1CFB1C1A70274BCC
:1049C0001B7801225340DBB2002B01D0FFF79CFF84
:1049D0001623FB1800221A807B683B613B69002B81
:1049E00035D00F23FB1800221A7029E03B691A7892
:1049F0000C23FB181A800A23FB181622B9180C2264
:104A0000BA18098812884A401A801623FB181B8896
:104A10001B0A99B20A23FB181B88FF221A40104B6D
:104A20005200D25A1623FB184A401A803B690133C0
:104A30003B610F23FB181A780F23FB1801321A7001
:104A40000F23FA18FB1C12781B789A42CED3162338
:104A5000FB181B88181CBD4606B080BDCC07002083
:104A6000D007002080B586B000AF7860396017238A
:104A7000FB1800221A7000233B6144E01623FB1848
:104A80007A6812781A700F23FB1808221A702FE028
:104A90001723FA181623FB1812781B785340DAB242
:104AA0000E23FB1801210A401A701723FB18172246
:104AB000BA18127852081A700E23FB181B78002BB4
:104AC00008D01723FB181722BA181278742149420C
:104AD0004A401A701623FB181622BA181278520888
:104AE0001A700F23FB181A780F23FB18013A1A705B
:104AF0000F23FB181B78002BCAD17B6801337B6026
:104B00003B6901333B613A693B689A42B6DB172344
:104B1000FB181B78181CBD4606B080BD80B500AFE1
:104B200000F004F800F00EF8BD4680BD80B500AF7F
:104B3000034B034A926E01218A439A66BD4680BDAB
:104B40000000014080B500AF094BC0225A62094BFA
:104B5000084AD26908490A40DA61064B074A1A60D6
:104B6000034BC3225A6200F00BF8BD4680BDC0461D
:104B70000000014000030140FFFDFFFF0001F13F85
:104B800080B500AF2A4B1A68FF231B0213401A0A94
:104B9000284B1A60274B1B68002B37D0244B1B680F
:104BA000FF221A40244B1A60214BDB690322134079
:104BB0001A02214B1B681A431F4B1A601C4BDA69FF
:104BC00080239B0013400ED11A4B1B689A021A4B8C
:104BD0001B68D3181948191C01F004FE031C1A01A4
:104BE000174B1A6021E000F02FF8031C9901114BBC
:104BF0001B689A02104B1B68D318081C191C01F083
:104C0000F1FD031C1A010E4B1A600EE0084BDA6925
:104C100080239B00134003D1094B0A4A1A6004E029
:104C200000F012F8021C064B1A60BD4680BDC0465B
:104C300000030140200A0020240A002000001BB7C6
:104C4000FC3F0020006CDC0280B500AF014B181C5B
:104C5000BD4680BD002D310190B585B000AFF86034
:104C60007A600B23FB180A1C1A700B23FB181B78A5
:104C70009B08DBB2181C0B23FB181B789B08DBB2CC
:104C80001A1CFB6804329200D3580B22BA1812780F
:104C900003210A40D200111CFC228A40D2431A4050
:104CA000111CFB68021D9200D150FB685B6F0B2248
:104CB000BA1812785200111C03228A40D2431A40BB
:104CC000FB685A670B23FB181B78DB08DBB2181C48
:104CD0000B23FB181B78DB08DBB21A1CFB681032B5
:104CE0009200D3580B22BA18127807210A4092007A
:104CF000111C04228A40D2431A40111CFB68021C7A
:104D000010329200D1500B23FB181B78DB08DBB26A
:104D1000181C0B23FB181B78DB08DBB21A1CFB6882
:104D200010329200D2587B685B781C1C0B23FB1856
:104D30001B7807210B409B009C40231C1A43111C2D
:104D4000FB68021C10329200D150FB68204A93424B
:104D50000BD1FB681B6E0B22BA181278012191400F
:104D60000A1CD2431A40FB681A667B681B78DBB2C8
:104D70005BB2002B07DA7B685A680B23FB181B78A1
:104D80009A40FB685A600B23FB181B789B08DBB228
:104D9000181C0B23FB181B789B08DBB21A1CFB6842
:104DA00004329200D2587B681B781C1C0B23FB1822
:104DB0001B7803210B40DB009C40231C1A43111C71
:104DC000FB68021D9200D150BD4605B090BDC046A3
:104DD0000002044080B500AF024BC3225A62BD46B8
:104DE00080BDC0460000014080B500AF054BC02229
:104DF0005A62C046034B5B6A04221340FAD1BD4697
:104E000080BDC0460000014080B582B000AF786030
:104E1000FFF7EAFF084B084A11697A680A431A61EA
:104E2000C046054B1A688023DB051340F9D1FFF714
:104E3000D1FFBD4602B080BD0003014080B582B005
:104E400000AF7860054B9B687A6813405A1E934107
:104E5000DBB2181CBD4602B080BDC0460003014055
:104E600080B500AF024B1B68181CBD4680BDC04614
:104E7000FC3F002080B582B000AF021CFB1D1A7001
:104E80003B1D0A1C1A803B1D3A1D128803210A4053
:104E90001A80FB1D1B780F2B13D8184B174AD26EA4
:104EA000F91D09784900081C03218140C9430A40C3
:104EB000391D0988F81D0078400081400A43DA66F0
:104EC00018E0FB1DFA1D12780F210A401A700B4BD7
:104ED0000A4A126FF91D09784900081C0321814014
:104EE000C9430A40391D0988F81D007840008140F7
:104EF0000A431A67BD4602B080BDC04600000140AB
:104F000080B582B000AF78607A68E2235B00D25847
:104F1000C0239B0013405A425341DBB2181CBD46CC
:104F200002B080BD90B583B000AF78600C1C101C3F
:104F3000191CFB1C221C1A70BB1C021C1A707B1C47
:104F40000A1C1A70FB1C1A78BB1C1B781904FF235F
:104F50001B040B401A437B1C1B781B061A43111CB5
:104F60007A68E2235B00D150BD4603B090BDC046D5
:104F700080B582B000AF78607B681B6840221A431E
:104F80007B681A60BD4602B080BDC04680B582B065
:104F900000AF78607B681B68402293431A1C7B68D3
:104FA0001A60BD4602B080BD80B582B000AF7860A7
:104FB00039607A683B68934200D2131C181CBD46C6
:104FC00002B080BD80B582B000AF786039607A6889
:104FD0003B68934200D9131C181CBD4602B080BD2B
:104FE00080B590B000AF786039600C23FB630C2370
:104FF000BB6300237B6301233B6300237B610023AE
:10500000FB626A4BBB620123FB636AE03B681A6880
:10501000131C9B009B185B00181CF96B01F0E2FB52
:10502000031C3B613B685B683869191C01F0DAFBC3
:10503000031C7B627B6A181C0A2101F059FC0B1EC1
:10504000052B0AD97B6A181C0A2101F0CBFB031C33
:105050007B627B6A01337B6206E07B6A181C0A2153
:1050600001F0C0FB031C7B627B6A002B0BD07A6AC9
:10507000131C9B009B185B003869191C01F0B2FBE4
:10508000031C3B6208E03B69181C0A2101F0AAFBE3
:10509000031C3B6201237B623B685A683B6A9A426D
:1050A00005D83B685B683A6AD31AFB6104E03B6849
:1050B0005A683B6AD31AFB617B6A142B0ED8BA6A12
:1050C000FB699A420AD9FB6B7B637B6AFB62FB69D3
:1050D000BB62FB69364A934200D805E0FB6B0133A3
:1050E000FB63FB6B402B91D9304BBB624023BB630E
:1050F0002EE0BB6B01332D4A5343181CF96A01F0B3
:1051000071FB031CFB603B681B891A1EFB689A42FB
:1051100006D83B681B891A1CFB689B1ABB6105E01B
:105120003B681B891A1CFB68D31ABB61BA6ABB694E
:105130009A4203D9BB6B3B63BB69BB623B681B896B
:105140001A1EFB689A4200D905E0BB6B013BBB63AA
:10515000BB6B022BCDD8FA6A3B6BD31A013B7B6148
:105160007B68181CFFF704FF7B69013B1A03E023EF
:10517000DB011A403B685B89013B9B01FF210B402F
:105180001A433B6B013B1902F0231B010B401A43EE
:105190007B6B013B3F210B401A437B681A617B68A4
:1051A000181CFFF7F3FEBD4610B080BD10270000AD
:1051B000E703000090B583B000AF7860081C111CB5
:1051C000FB1C021C1A70BB1C0A1C1A70C0467B68B0
:1051D000181CFFF795FE031C1A1C01235340DBB279
:1051E000002BF4D1FB1C1B780133DCB27A68BB1CAA
:1051F0001B78101C02211A1C231CFFF793FEBD46CE
:1052000003B090BD80B582B000AF786080239B036F
:10521000181CFFF7F9FD7B681B68012293431A1CD9
:105220007B681A60C0467B681B6802221340FAD173
:10523000BD4602B080BDC04680B58EB000AFF860FC
:105240007A600B23FB180A1C1A70FB68181CFFF706
:10525000D9FFFA680B23FB181B78101C191C00F0EF
:105260007BF8FB68181C00F0A1F8031C7B63786BCB
:10527000796801F0B7FA031C1A1C8023DB009B1A23
:105280000020191CFFF790FE021C314B101C191C4A
:10529000FFF798FE031C3B633B6B8022D200D31ABE
:1052A000786B191C01F09EFA031CFB627B689B095A
:1052B000BB627B6B9B097B62BB6A9B02181C796A91
:1052C00001F090FA031C1A1C214B101C191CFFF74B
:1052D00079FE031C3B627B6A3A6A53439B0AFB617B
:1052E000FB699B01FB617A68FB6AD11A7A68FB69EA
:1052F000D01A1B23FA18002388425B4113701B232A
:10530000FB181B78002B01D03B6B00E03B6A7B61F4
:105310001B23FB181B78002B01D0012200E0022286
:105320001323FB181A70FB68DB680A4A1A40FB68F3
:10533000DA60FB68DA681323FB181B7899037B6932
:105340000B431A43FB68DA60BD460EB080BDC04611
:10535000FF030000003CFFFF80B582B000AF786023
:105360000A1CFB1C1A707A68E4235B00D3580F22D6
:1053700093431A1CFB1C1B781A43111C7A68E42304
:105380005B00D150BD4602B080BDC04680B582B042
:1053900000AF78607A68E4235B00D358DBB20F2259
:1053A0001340DBB2181CBD4602B080BD80B584B08E
:1053B00000AF78607B68181CFFF7E8FF031E012B25
:1053C00002D0022B05D009E0FFF74AFD031CFB6069
:1053D00007E0FFF739FC031CFB6002E00023FB60E1
:1053E000C046FB68181CBD4604B080BD80B586B0C1
:1053F00000AF78607B681B68484A944663445B0949
:105400007B617B695B095A037B691F210B401B028F
:1054100013433B617B681B687A6812689268404955
:105420000A409A607B681B687A68126891683A69DA
:105430000A439A607B68DB7920221340DBB2002BA1
:1054400007D07B68DB7920221340DBB2002B00D130
:1054500061E07B681B7E002B04D07B681B7E012BE8
:1054600000D058E07B681B682022DA617B68DB791A
:1054700020221340DBB2002B28D17B685B68FB60E5
:10548000FB685B0F5B07FB607B685B68DB00DB082E
:105490009B041A1CFB681343FB607B681B68FA685B
:1054A0009A617B689B68FB60FB685B0F5B07FB6036
:1054B0007B689B68DB00DB089B041A1CFB681343BA
:1054C000FB607B681B68FA68DA6009E07B681B6830
:1054D0007A6852689A617B681B687A689268DA60B9
:1054E0007B681B7E012B0DD17B68181C00F01EF819
:1054F0007B681B6880221205DA617B681B68094A99
:10550000DA6108E07B681B6880221201DA617B683F
:105510001B68054ADA61BD4606B080BD00F0FBAFEE
:10552000FF00FFFFC00020064006A00080B584B049
:1055300000AF78600F23FB1803221A707B681B7E74
:10554000012B25D17B681B682022DA617B681B68F0
:105550007A6812681268144911407A68127B100642
:10556000F022120502400A431A607B681B687A68C1
:1055700012691A617B681B687A6852695A617B6894
:105580001B680A4ADA610F23FB1800221A7003E035
:105590000F23FB1803221A700F23FB181B78181C0B
:1055A000BD4604B080BDC046FFFFFFF040002800AC
:1055B00080B586B000AF78601723FB1801221A70FF
:1055C0007B681B68DB69202213405B093B617B68B9
:1055D0001B68DA6980235B0013401B0AFB603B6990
:1055E000002B04D11723FB1804221A7010E0FB686B
:1055F000012B04D11723FB1802221A7008E07B68E4
:105600001B68E022D204DA611723FB1800221A700B
:105610001723FB181B78181CBD4606B080BDC0467A
:1056200080B586B000AF78601723FB1801221A708E
:105630001623FB1800221A701523FB1800221A707B
:105640007B681B68DA6980231B011340DB0A3B611E
:105650007B681B68DB69042213409B08FB603B6985
:10566000002B04D01723FB1803221A70D3E0FB6829
:10567000012B04D11723FB1802221A70CBE07B68A0
:105680001B680822DA617B681B689A6980239B0586
:1056900013405B0F51D17B68DA7920218A43DA719C
:1056A0007B681B689B695F4A13409B0CDB00DA0830
:1056B0007B68D200D2085968490F49070A435A60EB
:1056C0007B681B68DA6880239B0513405B0FDBB2A5
:1056D0001A1C01231340DAB27B6801210A405001F1
:1056E000DA7A20218A43111C021C0A43DA727B6891
:1056F000DB7A20221340DBB2002B10D07B681B68C2
:10570000DB68484A13409B0CDB00DA087B68D20058
:10571000D2089968490F49070A439A6043E07B68B9
:105720001B68DB68DB00DA087B68D200D208996866
:10573000490F49070A439A6035E07B68DA792021EE
:105740000A43DA717B681B689B69DB00DA087B68B7
:10575000D200D2085968490F49070A435A607B684A
:105760001B68DB68DB00DA087B68D200D208996826
:10577000490F49070A439A607B681B68DA688023EF
:105780009B0513405B0FDBB21A1C01231340DAB2F6
:105790007B6801210A405001DA7A20218A43111CDA
:1057A000021C0A43DA727B681B681A68F0231B0527
:1057B00013401B0EDAB27B681A737B681B681A6988
:1057C0007B681A617B681B685A697B685A617B68D1
:1057D0001B68DB69042213409A081623FB181A7011
:1057E0007B681B68DB6908221340DA081523FB1865
:1057F0001A701623FB181B78002B05D01523FB18F5
:105800001B78002B00D03AE77B6800221A7617231A
:10581000FB1800221A701723FB181B78181CBD46B2
:1058200006B080BD0000FC1F80B582B000AF78607C
:105830007B6880225200DA60BD4602B080BDC0465F
:1058400080B582B000AF78607B68094A934203D18B
:105850000420FFF7D9FA08E07B68064A934204D196
:1058600080239B02181CFFF7CFFABD4602B080BD13
:10587000000004480040044880B582B000AF786062
:105880007B68181CFFF7DCFFBD4602B080BDC04638
:1058900080B584B000AF78600A1CFB1C1A707B686E
:1058A000181CFFF7E9FF7B68181CFFF7BDFF7B683A
:1058B0001B68FB60FB68074A1340FB60FB1C1B78FE
:1058C0009B03FA681343FB607B68FA681A60BD4665
:1058D00004B080BDFF3FFFFF80B584B000AF7860AB
:1058E0000A1CFB1C1A707B681B68FB60FB6830227B
:1058F0009343FB60FB1C1B781B01FA681343FB609E
:105900007B68FA681A60BD4604B080BD80B582B07D
:1059100000AF786039603B681A687B685A613B6801
:105920005B799B06DB0FDBB21A057B685A603B682C
:105930001B791B071B0FDBB21A1C7B685A623B6882
:105940005B791B071B0FDBB21A1C7B681A623B6872
:105950005B79DB06DB0FDBB21A1C7B689A613B6864
:105960001B791B061B0FDBB21A1C7B68DA62BD4673
:1059700002B080BD80B586B000AF7860081C111CF5
:10598000FB1C021C1A70BB1C0A1C1A707B68A82224
:105990009B58FB60FB1C1B78092B1AD89A001A4BEA
:1059A000D3181B689F4603233B6100237B6116E0ED
:1059B0000C233B6102237B6111E0C0239B003B6110
:1059C00008237B610BE0C0231B013B610A237B6141
:1059D00005E0C0239B013B610C237B61C0463B6912
:1059E000DA43FB681340FB60BB1C1A787B699A4062
:1059F000131CFA681343FB607B68A821FA685A50AD
:105A0000BD4606B080BDC04628CE001080B584B02B
:105A100000AF786039601023FB607B68181C00F0D1
:105A200097F83B681B7A002B02D03B681B7AFB601F
:105A30003B681B79002B09D03B681B68191CFB686D
:105A40007A68101C1A1C00F035F908E03B681A68E7
:105A50007968FB68081C111C1A1C00F0B5F83B683B
:105A6000DB79013B5A00FB685B0801331B021343DF
:105A7000194A1A437B68DA633B685B79013B1B0672
:105A8000812252001A437B685A633B689B79002B42
:105A900009D07B685A6B3B689B79013B1B041A4316
:105AA0007B685A6308E07B685A6B3B685B79013B13
:105AB0001B041A437B685A637B68A022D2009A6356
:105AC0007B6801225242DA643B685B891A1C7B685E
:105AD0001A64BD4604B080BD0100030080B584B0E7
:105AE00000AF78607A6886235B00D258E023DB043D
:105AF000134005D17B685A6D0E23FB181A8006E00F
:105B00007A688E235B00D2580E23FB181A800E236E
:105B1000FB181B88181CBD4604B080BD80B582B040
:105B200000AF786039607B681A6C3968FE235B02CD
:105B30000B401A437B681A647B68DA6B3B68F82178
:105B40000B401A437B68DA63BD4602B080BDC04695
:105B500080B582B000AF78607A689023DB059A4206
:105B600003D07B68134A934204D1134B181C00F0F6
:105B700047F90BE07B68114A934203D07B68104AD7
:105B8000934203D10F4B181C00F03AF97B680322B3
:105B9000DA60C0467B68DB6801221340FAD07B687C
:105BA0001B6C0F2293431A1C7B681A64BD4602B01B
:105BB00080BDC04600020048080000480040004880
:105BC000004200480840004880B58EB000AFF86041
:105BD000B9607A60BB68632B5CD97B68002B59D0B5
:105BE000FFF73EF9031C181C642100F0FBFD031CA9
:105BF0003B62BB68181C642100F0F4FD031CBB6011
:105C00000123FB620123BB62284B7B62274B3B6372
:105C100024E03B6A3A6B5A43111CBB687A685343D1
:105C2000081C191C00F0DEFD031CFB61FB699B0ACC
:105C3000BB61FB699B059B0D7B61BB691B4A934262
:105C400009D87A697B6A9A4205D27B697B62BB6913
:105C5000BB623B6BFB623B6B013B3B633B6B002BD3
:105C6000D7D1FB6A802212021A43FB681A61FB68D3
:105C70005B690F4A1A407B68013B9B021A43BB6A6F
:105C8000013B1B041A43FB685A613723FB180022AF
:105C90001A7003E03723FB1801221A703723FB1810
:105CA0001B78181CBD460EB080BDC046FF03000027
:105CB000EF8000FC80B58CB000AFF860B9607A600E
:105CC000FFF7CEF8031C3B62BB687A685343FB6165
:105CD0000123FB623A6AFB699A4262DD386AF9691C
:105CE00000F010FE031CBB620FE0FB6A0133FB6295
:105CF000BB687A6853431A1CFB6A5343FB61386ADA
:105D0000F96900F0FFFD031CBB62BB6A2A4A93429B
:105D1000EBD8396A7B68BA6A5343FA6A5343081C62
:105D2000191C00F05FFD031CBB61396ABB6A0133BB
:105D30007A685343FA6A5343081C191C00F052FD59
:105D4000031C7B61BA687B69D31AD9175A184A4079
:105D5000B968BB69CB1AD9175B184B409A4202DA73
:105D6000BB6A0133BB62BB6A8022D200D31ABB621A
:105D7000BB6A8022D2011A43FB681A61FB685B6927
:105D80000E4A1A407B68013B9B021A43FB6A013BA7
:105D90001B041A43FB685A612723FB1800221A7060
:105DA00003E02723FB1801221A702723FB181B7816
:105DB000181CBD460CB080BDFE030000EF8000FC47
:105DC00080B584B000AFF8607A600B23FB180A1C22
:105DD0001A70FB689B690B22BA1812780721914050
:105DE0000A1CD2431A400B23FB181B787968994090
:105DF0000B1C1A43FB689A61BD4604B080BDC046C7
:105E000080B582B000AF78607B68104A934209D1B8
:105E10000820FEF7F9FFC0460820FFF70FF8031E21
:105E2000FAD110E07B680A4A93420CD18023DB024E
:105E3000181CFEF7E9FFC0468023DB02181CFEF7A2
:105E4000FDFF031EF8D1BD4602B080BD080000482A
:105E50000840004880B584B000AF786039603B1CD2
:105E60001B785B075B0FDBB21A1CBB1C1B889B05F6
:105E70009B0D9BB21B041343FB607A68F8235B0005
:105E8000F968D150FB1C1B78DB06DB0FDBB21A076D
:105E9000FB1C1B781B079B0FDBB29B061A43FB1CEA
:105EA0001B789B06DB0FDBB25B071343FB60FB1C1D
:105EB0001B785B06DB0FDBB29B07FA681343FB60C2
:105EC0007A68F8235B00D258FB68134380221206DD
:105ED0001A43111C7A68F8235B00D150BD4604B008
:105EE00080BDC04680B582B000AF78607B688422F8
:105EF0009B58802252041A437B6884215A50BD4625
:105F000002B080BD80B582B000AF78607B6884222B
:105F10009B58044A1A407B6884215A50BD4602B0FF
:105F200080BDC046FFFFFFFE80B500AF0120FEF739
:105F30006BFFBD4680BDC04680B582B000AF7860C3
:105F40003960FFF7F1FF3B685A697B681A603B686C
:105F50005B68802212021A437B6880215A503B689A
:105F60009A687B68A0215A503B68DA687B68A42154
:105F70005A503B6819697A68A0239B00D1503B684E
:105F80001A687B68B8215A50BD4602B080BDC04631
:105F900080B584B000AF78607B6880229B588022F7
:105FA00012061A437B6880215A500F23FB180022E7
:105FB0001A701DE00F23FB181A78114B9200D3586A
:105FC000BB60BB6880229A58C0239B02134008D054
:105FD00000E0C046BB6880229A5880235B051340CE
:105FE000F7D10F23FB181A780F23FB1801321A7010
:105FF0000F23FB181B78012BDCD9BD4604B080BDF4
:1060000050CE001080B582B000AF786039607A68F9
:106010003B685B68101C191C0022002300F030F85C
:106020007A683B685B68101C191C0122002300F091
:1060300027F87A683B689B68101C191C0022012312
:1060400000F01EF87A683B689B68101C191C01223E
:10605000012300F015F83B681A697B6880215A50CB
:106060003B68DA687B68B8215A507A683B681B68DD
:10607000101C191CFFF7EEFEBD4602B080BDC046E5
:1060800080B58CB000AFF860B9603B60FB1D1A7042
:10609000FB1D1B78002B19D10823FB62E023DB00DA
:1060A0007B620023BB621F233B620823FB181B7823
:1060B000DB06DB0EDBB2FB610923FB181B785B07F9
:1060C0005B0FDAB21B23FB181A7019E01823FB626E
:1060D000E023DB047B621023BB62F8235B033B629B
:1060E0000A23FB181B78DB06DB0EDBB2FB610B23FC
:1060F000FB181B785B075B0FDAB21B23FB181A70C7
:10610000FB683A6828329200D3587B617B6ADA4395
:106110007B6913407B611B23FB181A78FB6A9A404A
:10612000131C7A6913437B613B6ADA437B69134032
:106130007B61BB6AFA699A40131C7A6913437B61DD
:10614000FB683A68283292007969D150BD460CB09C
:1061500080BDC04680B584B000AF78600A1CFB1CCF
:106160001A707B6880229B58FB60FB680322934374
:10617000FB60FB1C1B78FA681343FB607B68802183
:10618000FA685A50BD4604B080BDC04680B584B0A0
:1061900000AF786039607B68181CFFF7B3FE7B683E
:1061A00084229B58FB60FB6803229343FB603B689F
:1061B0001B781B079B0FDBB21A1CFB681343FB60A9
:1061C0003B681B7803221340DBB2002B03D0FB6833
:1061D00008221343FB607B688421FA685A503B68AD
:1061E0005B68154A1A43111C7A6880235B00D15002
:1061F0003B689B6801221A43111C7A6882235B006A
:10620000D1503B681B7803221340DBB2022B0BD129
:106210007A6882235B00D358802252021A43111CF1
:106220007A6882235B00D1507B68181CFFF75AFE06
:10623000BD4604B080BDC0460080808080B588B077
:1062400000AFF860B9607A607B681B7BBB61FB685C
:1062500088229B587B61BB6801229A40131CDA4359
:106260007B6913407B61BB68BA699A40131C7A69E9
:1062700013437B61FB6888217A695A507B685B7B9A
:106280005BB2002B2ADB0023FB61BB68012B0AD128
:106290000823FB61FB68B0229B581E4A1A40FB682A
:1062A000B0215A500DE0BB68002B0AD10023FB61DE
:1062B000FB68B0229B581F2293431A1CFB68B02135
:1062C0005A50FB68B0229B587A68527B51B2FA69E7
:1062D00091400A1C1A43FB68B0215A50FB68C8223F
:1062E0009A587B685B681A43FB68C8215A50FB6860
:1062F000D0229A587B689B681A43FB68D0215A5079
:106300007B681968FB68BA6880329200D150BD463C
:1063100008B080BDFFE0FFFF80B586B000AFF86039
:10632000B960FB1D1A70BB68072B1BD8FA68D8230D
:106330005B00D3587B61BB689B001A1C0F23934002
:10634000DA437B6913407B61FB1D1B78BA689200BE
:1063500093407A6913437B61FA68D8235B007969BB
:10636000D15020E0FA68DA235B00D3587B61BB6828
:106370000E4A944663449B001A1C0F239340DA4351
:106380007B6913407B61FB1D1B78BA6807498C460B
:106390006244920093407A6913437B61FA68DA237E
:1063A0005B007969D150BD4606B080BDF8FFFF3F64
:1063B00080B584B000AF7860144B1B68002B02D10D
:1063C000124B134A1A60114B1B68FB607B68033346
:1063D000032293437B600D4B1A687B68D2180D4BE8
:1063E0009A4207D2094B1A687B68D218074B1A6089
:1063F000FB6806E002F0A0FB031C0C221A600123DC
:106400005B42181CBD4604B080BDC046280A00206F
:10641000600B0020FC3F002080B500AFBD4680BD72
:10642000B0B582B000AF021C3960FB1D1A70FB1DB5
:106430001B787F2B27D82D4CFB1D1B785BB29B084C
:106440002A49FA1D127852B29208C032920052586C
:10645000F91D0978081C03210140C900081CFF210F
:106460008140C94311403A689201FF200240F81D63
:106470000078051C03202840C00082400A43C03336
:106480009B001A512EE01A4CFB1D1B781A1C0F237F
:106490001340083B9908164AFB1D1B78181C0F2354
:1064A0000340083B9B0806339B00D3185B68FA1D2A
:1064B0001278101C03220240D200101CFF228240DE
:1064C000D2431A403B689B01FF200340F81D00782F
:1064D000051C03202840C00083401A438B1D9B00ED
:1064E000E3185A60BD4602B0B0BDC04600E100E00E
:1064F00000ED00E080B582B000AF78607B68013BC2
:106500000C4A934201D9012310E00B4B7A68013AFF
:106510005A6001235B42181C0321FFF781FF064BE1
:1065200000229A60044B07221A600023181CBD4603
:1065300002B080BDFFFFFF0010E000E080B584B036
:1065400000AFF8607A600B23FB180A1C1A700B234B
:10655000FB181B787A689A40FB685A60BD4604B005
:1065600080BDC04680B500AFBD4680BD90B583B04C
:1065700002AF8E4B00221A708C4B00221A718B4B8B
:1065800000225A808A4B1B68181CFA23990000F0DD
:1065900029F9031C181CFFF7ADFFFDF7E1FAFDF721
:1065A00049FEFCF7BBFDFDF743FCFCF721FCFCF7C3
:1065B00063FBFCF7D3F97F4B00221A707E4B00225D
:1065C0009A707D4B0022DA707B4B00225A717A4B15
:1065D00000221A71784B00221A70774B00225A70F1
:1065E00075487649764A774C774B0093774B019301
:1065F000231CFAF7CDFF704B181CFAF783FF6D4B85
:106600001B78052B00D9CEE09A00714BD3181B687C
:106610009F46684B00221A706E4A80235B02101C52
:106620000B211A1CFFF78AFF6A4B181C0C21012250
:10663000FFF784FF674B181C0D210122FFF77EFF37
:10664000654B1C685B4859495B4A644B00935B4B44
:106650000193231CFAF738FDA6E0564B01221A706D
:106660005C4B181C0B210122FFF768FF594A80235D
:106670005B02101C0C211A1CFFF760FF554B181C05
:106680000D210122FFF75AFF4A4848494A4A534C14
:106690004A4B0093231CFAF783FD85E0454B022209
:1066A0001A704C4A80235B02101C0B211A1CFFF746
:1066B00045FF484A80235B02101C0C211A1CFFF77F
:1066C0003DFF444B181C0D210122FFF737FF3948CD
:1066D0003A49364A384BFAF713FE65E0354B032248
:1066E0001A703C4B181C0B210122FFF727FF394B76
:1066F000181C0C210122FFF721FF364A80235B0280
:10670000101C0D211A1CFFF719FF2A482B492A4A91
:10671000324BFAF77FFE47E0264B04221A702D4ACF
:1067200080235B02101C0B211A1CFFF707FF294B6B
:10673000181C0C210122FFF701FF264A80235B026F
:10674000101C0D211A1CFFF7F9FE1A481B49174AA5
:10675000194C234B0093214B0193231CFAF792FE13
:1067600022E0144B05221A701A4A80235B02101C87
:106770000B211A1CFFF7E2FE164A80235B02101C55
:106780000C211A1CFFF7DAFE124A80235B02101C50
:106790000D211A1CFFF7D2FE064A044B101C191CCF
:1067A000FAF78CFE00E0C0461AE7C046940A0020C3
:1067B000FC3F0020560B0020500B0020440B002013
:1067C000D80A00209C0A0020440A0020B40A0020B5
:1067D00058CE001000020440340B00204C0B002067
:1067E0003C0A0020002243088B4274D303098B42E9
:1067F0005FD3030A8B4244D3030B8B4228D3030C91
:106800008B420DD3FF22090212BA030C8B4202D332
:106810001212090265D0030B8B4219D300E0090A5A
:10682000C30B8B4201D3CB03C01A5241830B8B4263
:1068300001D38B03C01A5241430B8B4201D34B034C
:10684000C01A5241030B8B4201D30B03C01A5241B1
:10685000C30A8B4201D3CB02C01A5241830A8B4236
:1068600001D38B02C01A5241430A8B4201D34B021F
:10687000C01A5241030A8B4201D30B02C01A524183
:10688000CDD2C3098B4201D3CB01C01A5241830937
:106890008B4201D38B01C01A524143098B4201D371
:1068A0004B01C01A524103098B4201D30B01C01A9C
:1068B0005241C3088B4201D3CB00C01A5241830816
:1068C0008B4201D38B00C01A524143088B4201D343
:1068D0004B00C01A5241411A00D2014652411046A3
:1068E0007047FFE701B5002000F0FCF802BDC0468C
:1068F0000029F7D003B5FFF775FF0EBC4243891A94
:106900001847C04603460B437FD4002243088B42FE
:1069100074D303098B425FD3030A8B4244D3030B26
:106920008B4228D3030C8B420DD3FF22090212BAEB
:10693000030C8B4202D31212090265D0030B8B4267
:1069400019D300E0090AC30B8B4201D3CB03C01A51
:106950005241830B8B4201D38B03C01A5241430B2C
:106960008B4201D34B03C01A5241030B8B4201D31C
:106970000B03C01A5241C30A8B4201D3CB02C01A87
:106980005241830A8B4201D38B02C01A5241430AFF
:106990008B4201D34B02C01A5241030A8B4201D3EE
:1069A0000B02C01A5241CDD2C3098B4201D3CB0195
:1069B000C01A524183098B4201D38B01C01A524144
:1069C00043098B4201D34B01C01A524103098B4248
:1069D00001D30B01C01A5241C3088B4201D3CB0033
:1069E000C01A524183088B4201D38B00C01A524116
:1069F00043088B4201D34B00C01A5241411A00D2C6
:106A000001465241104670475DE0CA0F00D049422E
:106A1000031000D34042534000229C4603098B429E
:106A20002DD3030A8B4212D3FC22890112BA030A26
:106A30008B420CD3890192118B4208D389019211A8
:106A40008B4204D389013AD0921100E08909C3092D
:106A50008B4201D3CB01C01A524183098B4201D32F
:106A60008B01C01A524143098B4201D34B01C01A1A
:106A7000524103098B4201D30B01C01A5241C30892
:106A80008B4201D3CB00C01A524183088B4201D301
:106A90008B00C01A5241D9D243088B4201D34B001C
:106AA000C01A5241411A00D20146634652415B105E
:106AB000104601D34042002B00D54942704763463F
:106AC0005B1000D3404201B5002000F00BF802BD7E
:106AD0000029F8D003B5FFF715FF0EBC4243891A11
